{
  "_format": "hh-sol-artifact-1",
  "contractName": "CeloCrush",
  "sourceName": "contracts/CeloCrush.sol",
  "abi": [
    {
      "inputs": [
        {
          "internalType": "address",
          "name": "_usdt",
          "type": "address"
        }
      ],
      "stateMutability": "nonpayable",
      "type": "constructor"
    },
    {
      "anonymous": false,
      "inputs": [
        {
          "indexed": true,
          "internalType": "uint256",
          "name": "crushId",
          "type": "uint256"
        },
        {
          "indexed": true,
          "internalType": "address",
          "name": "recipient",
          "type": "address"
        },
        {
          "indexed": false,
          "internalType": "bytes32",
          "name": "messageHash",
          "type": "bytes32"
        },
        {
          "indexed": false,
          "internalType": "uint256",
          "name": "tipAmount",
          "type": "uint256"
        },
        {
          "indexed": false,
          "internalType": "uint256",
          "name": "expiresAt",
          "type": "uint256"
        }
      ],
      "name": "CrushSent",
      "type": "event"
    },
    {
      "anonymous": false,
      "inputs": [
        {
          "indexed": true,
          "internalType": "uint256",
          "name": "crushId",
          "type": "uint256"
        },
        {
          "indexed": true,
          "internalType": "address",
          "name": "recipient",
          "type": "address"
        },
        {
          "indexed": false,
          "internalType": "uint256",
          "name": "amount",
          "type": "uint256"
        }
      ],
      "name": "TipClaimed",
      "type": "event"
    },
    {
      "anonymous": false,
      "inputs": [
        {
          "indexed": true,
          "internalType": "uint256",
          "name": "crushId",
          "type": "uint256"
        },
        {
          "indexed": true,
          "internalType": "address",
          "name": "sender",
          "type": "address"
        },
        {
          "indexed": false,
          "internalType": "uint256",
          "name": "amount",
          "type": "uint256"
        }
      ],
      "name": "TipRefunded",
      "type": "event"
    },
    {
      "inputs": [],
      "name": "EXPIRY_DAYS",
      "outputs": [
        {
          "internalType": "uint256",
          "name": "",
          "type": "uint256"
        }
      ],
      "stateMutability": "view",
      "type": "function"
    },
    {
      "inputs": [],
      "name": "FEE_DENOM",
      "outputs": [
        {
          "internalType": "uint256",
          "name": "",
          "type": "uint256"
        }
      ],
      "stateMutability": "view",
      "type": "function"
    },
    {
      "inputs": [],
      "name": "PROTOCOL_FEE",
      "outputs": [
        {
          "internalType": "uint256",
          "name": "",
          "type": "uint256"
        }
      ],
      "stateMutability": "view",
      "type": "function"
    },
    {
      "inputs": [],
      "name": "accruedFees",
      "outputs": [
        {
          "internalType": "uint256",
          "name": "",
          "type": "uint256"
        }
      ],
      "stateMutability": "view",
      "type": "function"
    },
    {
      "inputs": [
        {
          "internalType": "uint256",
          "name": "crushId",
          "type": "uint256"
        }
      ],
      "name": "claimTip",
      "outputs": [],
      "stateMutability": "nonpayable",
      "type": "function"
    },
    {
      "inputs": [
        {
          "internalType": "uint256",
          "name": "",
          "type": "uint256"
        }
      ],
      "name": "crushes",
      "outputs": [
        {
          "internalType": "address",
          "name": "sender",
          "type": "address"
        },
        {
          "internalType": "address",
          "name": "recipient",
          "type": "address"
        },
        {
          "internalType": "bytes32",
          "name": "messageHash",
          "type": "bytes32"
        },
        {
          "internalType": "uint256",
          "name": "tipAmount",
          "type": "uint256"
        },
        {
          "internalType": "uint256",
          "name": "expiresAt",
          "type": "uint256"
        },
        {
          "internalType": "bool",
          "name": "claimed",
          "type": "bool"
        },
        {
          "internalType": "bool",
          "name": "refunded",
          "type": "bool"
        }
      ],
      "stateMutability": "view",
      "type": "function"
    },
    {
      "inputs": [
        {
          "internalType": "uint256",
          "name": "crushId",
          "type": "uint256"
        }
      ],
      "name": "getCrush",
      "outputs": [
        {
          "components": [
            {
              "internalType": "address",
              "name": "sender",
              "type": "address"
            },
            {
              "internalType": "address",
              "name": "recipient",
              "type": "address"
            },
            {
              "internalType": "bytes32",
              "name": "messageHash",
              "type": "bytes32"
            },
            {
              "internalType": "uint256",
              "name": "tipAmount",
              "type": "uint256"
            },
            {
              "internalType": "uint256",
              "name": "expiresAt",
              "type": "uint256"
            },
            {
              "internalType": "bool",
              "name": "claimed",
              "type": "bool"
            },
            {
              "internalType": "bool",
              "name": "refunded",
              "type": "bool"
            }
          ],
          "internalType": "struct CeloCrush.Crush",
          "name": "",
          "type": "tuple"
        }
      ],
      "stateMutability": "view",
      "type": "function"
    },
    {
      "inputs": [
        {
          "internalType": "address",
          "name": "user",
          "type": "address"
        }
      ],
      "name": "getInbox",
      "outputs": [
        {
          "internalType": "uint256[]",
          "name": "",
          "type": "uint256[]"
        }
      ],
      "stateMutability": "view",
      "type": "function"
    },
    {
      "inputs": [
        {
          "internalType": "address",
          "name": "",
          "type": "address"
        },
        {
          "internalType": "uint256",
          "name": "",
          "type": "uint256"
        }
      ],
      "name": "inboxOf",
      "outputs": [
        {
          "internalType": "uint256",
          "name": "",
          "type": "uint256"
        }
      ],
      "stateMutability": "view",
      "type": "function"
    },
    {
      "inputs": [],
      "name": "nextCrushId",
      "outputs": [
        {
          "internalType": "uint256",
          "name": "",
          "type": "uint256"
        }
      ],
      "stateMutability": "view",
      "type": "function"
    },
    {
      "inputs": [],
      "name": "owner",
      "outputs": [
        {
          "internalType": "address",
          "name": "",
          "type": "address"
        }
      ],
      "stateMutability": "view",
      "type": "function"
    },
    {
      "inputs": [
        {
          "internalType": "uint256",
          "name": "crushId",
          "type": "uint256"
        }
      ],
      "name": "refund",
      "outputs": [],
      "stateMutability": "nonpayable",
      "type": "function"
    },
    {
      "inputs": [
        {
          "internalType": "address",
          "name": "recipient",
          "type": "address"
        },
        {
          "internalType": "bytes32",
          "name": "messageHash",
          "type": "bytes32"
        },
        {
          "internalType": "uint256",
          "name": "tipAmount",
          "type": "uint256"
        }
      ],
      "name": "sendCrush",
      "outputs": [
        {
          "internalType": "uint256",
          "name": "crushId",
          "type": "uint256"
        }
      ],
      "stateMutability": "nonpayable",
      "type": "function"
    },
    {
      "inputs": [],
      "name": "sweepFees",
      "outputs": [],
      "stateMutability": "nonpayable",
      "type": "function"
    },
    {
      "inputs": [],
      "name": "usdt",
      "outputs": [
        {
          "internalType": "contract IERC20",
          "name": "",
          "type": "address"
        }
      ],
      "stateMutability": "view",
      "type": "function"
    },
    {
      "inputs": [
        {
          "internalType": "bytes32",
          "name": "",
          "type": "bytes32"
        }
      ],
      "name": "usedNullifiers",
      "outputs": [
        {
          "internalType": "bool",
          "name": "",
          "type": "bool"
        }
      ],
      "stateMutability": "view",
      "type": "function"
    }
  ],
  "bytecode": "0x60c0604052600160005534801561001557600080fd5b5060405161114638038061114683398101604081905261003491610049565b6001600160a01b03166080523360a052610079565b60006020828403121561005b57600080fd5b81516001600160a01b038116811461007257600080fd5b9392505050565b60805160a05161107e6100c8600039600081816103cf01528181610d100152610d88015260008181610358015281816106430152818161092d01528181610bde0152610dbb015261107e6000f3fe608060405234801561001057600080fd5b50600436106101005760003560e01c80634886c67511610097578063997241751161006657806399724175146103f1578063c088ae59146103fb578063d113b95c14610404578063f2e7d8e51461040c57600080fd5b80634886c675146103a5578063682c2058146103ae5780637ce138a5146103b75780638da5cb5b146103ca57600080fd5b8063206137aa116100d3578063206137aa1461030b578063278ecde11461033e5780632f48ab7d14610353578063365ac2851461039257600080fd5b806302201681146101055780630637bccf1461012e5780630b4501fd146102535780631373b13a14610269575b600080fd5b610118610113366004610eb6565b61041f565b6040516101259190610ed8565b60405180910390f35b6101f061013c366004610f1c565b6040805160e081018252600080825260208201819052918101829052606081018290526080810182905260a0810182905260c081019190915250600090815260016020818152604092839020835160e08101855281546001600160a01b0390811682529382015490931691830191909152600281015492820192909252600382015460608201526004820154608082015260059091015460ff808216151560a084015261010090910416151560c082015290565b604051610125919081516001600160a01b0390811682526020808401519091169082015260408083015190820152606080830151908201526080808301519082015260a08281015115159082015260c09182015115159181019190915260e00190565b61025b601981565b604051908152602001610125565b6102c7610277366004610f1c565b60016020819052600091825260409091208054918101546002820154600383015460048401546005909401546001600160a01b039586169590931693919290919060ff8082169161010090041687565b604080516001600160a01b0398891681529790961660208801529486019390935260608501919091526080840152151560a0830152151560c082015260e001610125565b61032e610319366004610f1c565b60036020526000908152604090205460ff1681565b6040519015158152602001610125565b61035161034c366004610f1c565b61048b565b005b61037a7f000000000000000000000000000000000000000000000000000000000000000081565b6040516001600160a01b039091168152602001610125565b6103516103a0366004610f1c565b610738565b61025b6103e881565b61025b60045481565b61025b6103c5366004610f35565b610a1d565b61037a7f000000000000000000000000000000000000000000000000000000000000000081565b61025b62278d0081565b61025b60005481565b610351610d05565b61025b61041a366004610f68565b610e69565b6001600160a01b03811660009081526002602090815260409182902080548351818402810184019094528084526060939283018282801561047f57602002820191906000526020600020905b81548152602001906001019080831161046b575b50505050509050919050565b600081815260016020526040902080546001600160a01b031633146104e85760405162461bcd60e51b815260206004820152600e60248201526d09cdee840f2deeae440c6e4eae6d60931b60448201526064015b60405180910390fd5b600581015460ff161561052f5760405162461bcd60e51b815260206004820152600f60248201526e105b1c9958591e4818db185a5b5959608a1b60448201526064016104df565b6005810154610100900460ff161561057c5760405162461bcd60e51b815260206004820152601060248201526f105b1c9958591e481c99599d5b99195960821b60448201526064016104df565b60008160030154116105c35760405162461bcd60e51b815260206004820152601060248201526f139bc81d1a5c081d1bc81c99599d5b9960821b60448201526064016104df565b806004015442116106085760405162461bcd60e51b815260206004820152600f60248201526e139bdd08195e1c1a5c9959081e595d608a1b60448201526064016104df565b60058101805461ff001916610100179055600381015460405163a9059cbb60e01b815233600482015260248101919091526001600160a01b037f0000000000000000000000000000000000000000000000000000000000000000169063a9059cbb906044016020604051808303816000875af115801561068c573d6000803e3d6000fd5b505050506040513d601f19601f820116820180604052508101906106b09190610f92565b6106ec5760405162461bcd60e51b815260206004820152600d60248201526c1499599d5b990819985a5b1959609a1b60448201526064016104df565b336001600160a01b0316827ff0ce4af83c62bc7770a3eaec42436bee12df40fcd39906ff559c79f56fd90176836003015460405161072c91815260200190565b60405180910390a35050565b6000818152600160208190526040909120908101546001600160a01b031633146107955760405162461bcd60e51b815260206004820152600e60248201526d09cdee840f2deeae440c6e4eae6d60931b60448201526064016104df565b600581015460ff16156107dc5760405162461bcd60e51b815260206004820152600f60248201526e105b1c9958591e4818db185a5b5959608a1b60448201526064016104df565b6005810154610100900460ff16156108295760405162461bcd60e51b815260206004820152601060248201526f105b1c9958591e481c99599d5b99195960821b60448201526064016104df565b600081600301541161086f5760405162461bcd60e51b815260206004820152600f60248201526e4e6f2074697020746f20636c61696d60881b60448201526064016104df565b80600401544211156108b35760405162461bcd60e51b815260206004820152600d60248201526c10dc9d5cda08195e1c1a5c9959609a1b60448201526064016104df565b60058101805460ff1916600117905560038101546000906103e8906108da90601990610fca565b6108e49190610fe7565b905060008183600301546108f89190611009565b9050816004600082825461090c919061101c565b909155505060405163a9059cbb60e01b8152336004820152602481018290527f00000000000000000000000000000000000000000000000000000000000000006001600160a01b03169063a9059cbb906044016020604051808303816000875af115801561097e573d6000803e3d6000fd5b505050506040513d601f19601f820116820180604052508101906109a29190610f92565b6109e05760405162461bcd60e51b815260206004820152600f60248201526e151c985b9cd9995c8819985a5b1959608a1b60448201526064016104df565b604051818152339085907f92ec8bf90b39ac0b434aa5f94041edc3c7fcb1caf3c29486657e5d052a5d9f609060200160405180910390a350505050565b60006001600160a01b038416610a695760405162461bcd60e51b8152602060048201526011602482015270125b9d985b1a59081c9958da5c1a595b9d607a1b60448201526064016104df565b336001600160a01b03851603610ab95760405162461bcd60e51b815260206004820152601560248201527421b0b73737ba1031b93ab9b4103cb7bab939b2b63360591b60448201526064016104df565b600080549080610ac88361102f565b9091555090506000610add62278d004261101c565b6040805160e0810182523381526001600160a01b0388811660208084018281528486018b8152606086018b815260808701898152600060a0890181815260c08a018281528e835260018089528c84209b518c54908c166001600160a01b0319918216178d5597518c8201805491909c1698169790971790995593516002808b0191909155925160038a015590516004890155915160059097018054965115156101000261ff00199815159890981661ffff199097169690961796909617909455918352928352928120805493840181558152200183905590508215610caf576040516323b872dd60e01b8152336004820152306024820152604481018490527f00000000000000000000000000000000000000000000000000000000000000006001600160a01b0316906323b872dd906064016020604051808303816000875af1158015610c2f573d6000803e3d6000fd5b505050506040513d601f19601f82011682018060405250810190610c539190610f92565b610caf5760405162461bcd60e51b815260206004820152602760248201527f55534454207472616e73666572206661696c6564202d2064696420796f7520616044820152667070726f76653f60c81b60648201526084016104df565b60408051858152602081018590529081018290526001600160a01b0386169083907fb8785a68137c699b06a8af4eafa34e26e559a55cc09f0a2499de99b28acf91609060600160405180910390a3509392505050565b336001600160a01b037f00000000000000000000000000000000000000000000000000000000000000001614610d695760405162461bcd60e51b81526020600482015260096024820152682737ba1037bbb732b960b91b60448201526064016104df565b600480546000825560405163a9059cbb60e01b81526001600160a01b037f00000000000000000000000000000000000000000000000000000000000000008116938201939093526024810182905290917f0000000000000000000000000000000000000000000000000000000000000000169063a9059cbb906044016020604051808303816000875af1158015610e04573d6000803e3d6000fd5b505050506040513d601f19601f82011682018060405250810190610e289190610f92565b610e665760405162461bcd60e51b815260206004820152600f60248201526e151c985b9cd9995c8819985a5b1959608a1b60448201526064016104df565b50565b60026020528160005260406000208181548110610e8557600080fd5b90600052602060002001600091509150505481565b80356001600160a01b0381168114610eb157600080fd5b919050565b600060208284031215610ec857600080fd5b610ed182610e9a565b9392505050565b6020808252825182820181905260009190848201906040850190845b81811015610f1057835183529284019291840191600101610ef4565b50909695505050505050565b600060208284031215610f2e57600080fd5b5035919050565b600080600060608486031215610f4a57600080fd5b610f5384610e9a565b95602085013595506040909401359392505050565b60008060408385031215610f7b57600080fd5b610f8483610e9a565b946020939093013593505050565b600060208284031215610fa457600080fd5b81518015158114610ed157600080fd5b634e487b7160e01b600052601160045260246000fd5b8082028115828204841417610fe157610fe1610fb4565b92915050565b60008261100457634e487b7160e01b600052601260045260246000fd5b500490565b81810381811115610fe157610fe1610fb4565b80820180821115610fe157610fe1610fb4565b60006001820161104157611041610fb4565b506001019056fea2646970667358221220a7c9c631086b4db39e73f0906ad031c37ae192b83d7dbaba7d593f1d06f6481064736f6c63430008140033",
  "linkReferences": {},
  "deployedLinkReferences": {}
}